{
  "_format": "hh-sol-artifact-1",
  "contractName": "AccessToken",
  "sourceName": "contracts/AccessToken.sol",
  "abi": [
    {
      "inputs": [],
      "stateMutability": "nonpayable",
      "type": "constructor"
    },
    {
      "anonymous": false,
      "inputs": [
        {
          "indexed": true,
          "internalType": "address",
          "name": "owner",
          "type": "address"
        },
        {
          "indexed": true,
          "internalType": "address",
          "name": "approved",
          "type": "address"
        },
        {
          "indexed": true,
          "internalType": "uint256",
          "name": "tokenId",
          "type": "uint256"
        }
      ],
      "name": "Approval",
      "type": "event"
    },
    {
      "anonymous": false,
      "inputs": [
        {
          "indexed": true,
          "internalType": "address",
          "name": "owner",
          "type": "address"
        },
        {
          "indexed": true,
          "internalType": "address",
          "name": "operator",
          "type": "address"
        },
        {
          "indexed": false,
          "internalType": "bool",
          "name": "approved",
          "type": "bool"
        }
      ],
      "name": "ApprovalForAll",
      "type": "event"
    },
    {
      "anonymous": false,
      "inputs": [
        {
          "indexed": true,
          "internalType": "address",
          "name": "from",
          "type": "address"
        },
        {
          "indexed": true,
          "internalType": "address",
          "name": "to",
          "type": "address"
        },
        {
          "indexed": true,
          "internalType": "uint256",
          "name": "tokenId",
          "type": "uint256"
        }
      ],
      "name": "Transfer",
      "type": "event"
    },
    {
      "inputs": [
        {
          "internalType": "address",
          "name": "to",
          "type": "address"
        },
        {
          "internalType": "uint256",
          "name": "tokenId",
          "type": "uint256"
        }
      ],
      "name": "approve",
      "outputs": [],
      "stateMutability": "nonpayable",
      "type": "function"
    },
    {
      "inputs": [
        {
          "internalType": "address",
          "name": "owner",
          "type": "address"
        }
      ],
      "name": "balanceOf",
      "outputs": [
        {
          "internalType": "uint256",
          "name": "",
          "type": "uint256"
        }
      ],
      "stateMutability": "view",
      "type": "function"
    },
    {
      "inputs": [
        {
          "internalType": "uint256",
          "name": "tokenId",
          "type": "uint256"
        }
      ],
      "name": "getApproved",
      "outputs": [
        {
          "internalType": "address",
          "name": "",
          "type": "address"
        }
      ],
      "stateMutability": "view",
      "type": "function"
    },
    {
      "inputs": [
        {
          "internalType": "address",
          "name": "user",
          "type": "address"
        }
      ],
      "name": "hasAccess",
      "outputs": [
        {
          "internalType": "bool",
          "name": "",
          "type": "bool"
        }
      ],
      "stateMutability": "view",
      "type": "function"
    },
    {
      "inputs": [
        {
          "internalType": "address",
          "name": "owner",
          "type": "address"
        },
        {
          "internalType": "address",
          "name": "operator",
          "type": "address"
        }
      ],
      "name": "isApprovedForAll",
      "outputs": [
        {
          "internalType": "bool",
          "name": "",
          "type": "bool"
        }
      ],
      "stateMutability": "view",
      "type": "function"
    },
    {
      "inputs": [],
      "name": "mint",
      "outputs": [],
      "stateMutability": "nonpayable",
      "type": "function"
    },
    {
      "inputs": [],
      "name": "name",
      "outputs": [
        {
          "internalType": "string",
          "name": "",
          "type": "string"
        }
      ],
      "stateMutability": "view",
      "type": "function"
    },
    {
      "inputs": [
        {
          "internalType": "uint256",
          "name": "tokenId",
          "type": "uint256"
        }
      ],
      "name": "ownerOf",
      "outputs": [
        {
          "internalType": "address",
          "name": "",
          "type": "address"
        }
      ],
      "stateMutability": "view",
      "type": "function"
    },
    {
      "inputs": [
        {
          "internalType": "address",
          "name": "from",
          "type": "address"
        },
        {
          "internalType": "address",
          "name": "to",
          "type": "address"
        },
        {
          "internalType": "uint256",
          "name": "tokenId",
          "type": "uint256"
        }
      ],
      "name": "safeTransferFrom",
      "outputs": [],
      "stateMutability": "nonpayable",
      "type": "function"
    },
    {
      "inputs": [
        {
          "internalType": "address",
          "name": "from",
          "type": "address"
        },
        {
          "internalType": "address",
          "name": "to",
          "type": "address"
        },
        {
          "internalType": "uint256",
          "name": "tokenId",
          "type": "uint256"
        },
        {
          "internalType": "bytes",
          "name": "data",
          "type": "bytes"
        }
      ],
      "name": "safeTransferFrom",
      "outputs": [],
      "stateMutability": "nonpayable",
      "type": "function"
    },
    {
      "inputs": [
        {
          "internalType": "address",
          "name": "operator",
          "type": "address"
        },
        {
          "internalType": "bool",
          "name": "approved",
          "type": "bool"
        }
      ],
      "name": "setApprovalForAll",
      "outputs": [],
      "stateMutability": "nonpayable",
      "type": "function"
    },
    {
      "inputs": [
        {
          "internalType": "bytes4",
          "name": "interfaceId",
          "type": "bytes4"
        }
      ],
      "name": "supportsInterface",
      "outputs": [
        {
          "internalType": "bool",
          "name": "",
          "type": "bool"
        }
      ],
      "stateMutability": "view",
      "type": "function"
    },
    {
      "inputs": [],
      "name": "symbol",
      "outputs": [
        {
          "internalType": "string",
          "name": "",
          "type": "string"
        }
      ],
      "stateMutability": "view",
      "type": "function"
    },
    {
      "inputs": [
        {
          "internalType": "uint256",
          "name": "tokenId",
          "type": "uint256"
        }
      ],
      "name": "tokenURI",
      "outputs": [
        {
          "internalType": "string",
          "name": "",
          "type": "string"
        }
      ],
      "stateMutability": "view",
      "type": "function"
    },
    {
      "inputs": [
        {
          "internalType": "address",
          "name": "from",
          "type": "address"
        },
        {
          "internalType": "address",
          "name": "to",
          "type": "address"
        },
        {
          "internalType": "uint256",
          "name": "tokenId",
          "type": "uint256"
        }
      ],
      "name": "transferFrom",
      "outputs": [],
      "stateMutability": "nonpayable",
      "type": "function"
    }
  ],
  "bytecode": "0x60806040523480156200001157600080fd5b506040518060400160405280600b81526020017f416363657373546f6b656e0000000000000000000000000000000000000000008152506040518060400160405280600381526020017f41544b000000000000000000000000000000000000000000000000000000000081525081600090816200008f91906200034c565b508060019081620000a191906200034c565b505050620000b66006620000bc60201b60201c565b62000433565b6001816000016000828254019250508190555050565b600081519050919050565b7f4e487b7100000000000000000000000000000000000000000000000000000000600052604160045260246000fd5b7f4e487b7100000000000000000000000000000000000000000000000000000000600052602260045260246000fd5b600060028204905060018216806200015457607f821691505b6020821081036200016a57620001696200010c565b5b50919050565b60008190508160005260206000209050919050565b60006020601f8301049050919050565b600082821b905092915050565b600060088302620001d47fffffffffffffffffffffffffffffffffffffffffffffffffffffffffffffffff8262000195565b620001e0868362000195565b95508019841693508086168417925050509392505050565b6000819050919050565b6000819050919050565b60006200022d620002276200022184620001f8565b62000202565b620001f8565b9050919050565b6000819050919050565b62000249836200020c565b62000261620002588262000234565b848454620001a2565b825550505050565b600090565b6200027862000269565b620002858184846200023e565b505050565b5b81811015620002ad57620002a16000826200026e565b6001810190506200028b565b5050565b601f821115620002fc57620002c68162000170565b620002d18462000185565b81016020851015620002e1578190505b620002f9620002f08562000185565b8301826200028a565b50505b505050565b600082821c905092915050565b6000620003216000198460080262000301565b1980831691505092915050565b60006200033c83836200030e565b9150826002028217905092915050565b6200035782620000d2565b67ffffffffffffffff811115620003735762000372620000dd565b5b6200037f82546200013b565b6200038c828285620002b1565b600060209050601f831160018114620003c45760008415620003af578287015190505b620003bb85826200032e565b8655506200042b565b601f198416620003d48662000170565b60005b82811015620003fe57848901518255600182019150602085019450602081019050620003d7565b868310156200041e57848901516200041a601f8916826200030e565b8355505b6001600288020188555050505b505050505050565b61266580620004436000396000f3fe608060405234801561001057600080fd5b50600436106100f55760003560e01c80636352211e11610097578063a22cb46511610066578063a22cb46514610284578063b88d4fde146102a0578063c87b56dd146102bc578063e985e9c5146102ec576100f5565b80636352211e146101d657806370a082311461020657806395a078e81461023657806395d89b4114610266576100f5565b8063095ea7b3116100d3578063095ea7b3146101785780631249c58b1461019457806323b872dd1461019e57806342842e0e146101ba576100f5565b806301ffc9a7146100fa57806306fdde031461012a578063081812fc14610148575b600080fd5b610114600480360381019061010f91906118f5565b61031c565b604051610121919061193d565b60405180910390f35b6101326103fe565b60405161013f91906119e8565b60405180910390f35b610162600480360381019061015d9190611a40565b610490565b60405161016f9190611aae565b60405180910390f35b610192600480360381019061018d9190611af5565b6104d6565b005b61019c6105ed565b005b6101b860048036038101906101b39190611b35565b6106f7565b005b6101d460048036038101906101cf9190611b35565b610757565b005b6101f060048036038101906101eb9190611a40565b610777565b6040516101fd9190611aae565b60405180910390f35b610220600480360381019061021b9190611b88565b6107fd565b60405161022d9190611bc4565b60405180910390f35b610250600480360381019061024b9190611b88565b6108b4565b60405161025d919061193d565b60405180910390f35b61026e61090a565b60405161027b91906119e8565b60405180910390f35b61029e60048036038101906102999190611c0b565b61099c565b005b6102ba60048036038101906102b59190611d80565b6109b2565b005b6102d660048036038101906102d19190611a40565b610a14565b6040516102e391906119e8565b60405180910390f35b61030660048036038101906103019190611e03565b610a7c565b604051610313919061193d565b60405180910390f35b60007f80ac58cd000000000000000000000000000000000000000000000000000000007bffffffffffffffffffffffffffffffffffffffffffffffffffffffff1916827bffffffffffffffffffffffffffffffffffffffffffffffffffffffff191614806103e757507f5b5e139f000000000000000000000000000000000000000000000000000000007bffffffffffffffffffffffffffffffffffffffffffffffffffffffff1916827bffffffffffffffffffffffffffffffffffffffffffffffffffffffff1916145b806103f757506103f682610b10565b5b9050919050565b60606000805461040d90611e72565b80601f016020809104026020016040519081016040528092919081815260200182805461043990611e72565b80156104865780601f1061045b57610100808354040283529160200191610486565b820191906000526020600020905b81548152906001019060200180831161046957829003601f168201915b5050505050905090565b600061049b82610b7a565b6004600083815260200190815260200160002060009054906101000a900473ffffffffffffffffffffffffffffffffffffffff169050919050565b60006104e182610777565b90508073ffffffffffffffffffffffffffffffffffffffff168373ffffffffffffffffffffffffffffffffffffffff1603610551576040517f08c379a000000000000000000000000000000000000000000000000000000000815260040161054890611f15565b60405180910390fd5b8073ffffffffffffffffffffffffffffffffffffffff16610570610bc5565b73ffffffffffffffffffffffffffffffffffffffff16148061059f575061059e81610599610bc5565b610a7c565b5b6105de576040517f08c379a00000000000000000000000000000000000000000000000000000000081526004016105d590611fa7565b60405180910390fd5b6105e88383610bcd565b505050565b600760003373ffffffffffffffffffffffffffffffffffffffff1673ffffffffffffffffffffffffffffffffffffffff16815260200190815260200160002060009054906101000a900460ff161561067a576040517f08c379a000000000000000000000000000000000000000000000000000000000815260040161067190612013565b60405180910390fd5b60006106866006610c86565b90506106923382610c94565b6001600760003373ffffffffffffffffffffffffffffffffffffffff1673ffffffffffffffffffffffffffffffffffffffff16815260200190815260200160002060006101000a81548160ff0219169083151502179055506106f46006610eb1565b50565b610708610702610bc5565b82610ec7565b610747576040517f08c379a000000000000000000000000000000000000000000000000000000000815260040161073e906120a5565b60405180910390fd5b610752838383610f5c565b505050565b610772838383604051806020016040528060008152506109b2565b505050565b60008061078383611255565b9050600073ffffffffffffffffffffffffffffffffffffffff168173ffffffffffffffffffffffffffffffffffffffff16036107f4576040517f08c379a00000000000000000000000000000000000000000000000000000000081526004016107eb90612111565b60405180910390fd5b80915050919050565b60008073ffffffffffffffffffffffffffffffffffffffff168273ffffffffffffffffffffffffffffffffffffffff160361086d576040517f08c379a0000000000000000000000000000000000000000000000000000000008152600401610864906121a3565b60405180910390fd5b600360008373ffffffffffffffffffffffffffffffffffffffff1673ffffffffffffffffffffffffffffffffffffffff168152602001908152602001600020549050919050565b6000600760008373ffffffffffffffffffffffffffffffffffffffff1673ffffffffffffffffffffffffffffffffffffffff16815260200190815260200160002060009054906101000a900460ff169050919050565b60606001805461091990611e72565b80601f016020809104026020016040519081016040528092919081815260200182805461094590611e72565b80156109925780601f1061096757610100808354040283529160200191610992565b820191906000526020600020905b81548152906001019060200180831161097557829003601f168201915b5050505050905090565b6109ae6109a7610bc5565b8383611292565b5050565b6109c36109bd610bc5565b83610ec7565b610a02576040517f08c379a00000000000000000000000000000000000000000000000000000000081526004016109f9906120a5565b60405180910390fd5b610a0e848484846113fe565b50505050565b6060610a1f82610b7a565b6000610a2961145a565b90506000815111610a495760405180602001604052806000815250610a74565b80610a5384611471565b604051602001610a649291906121ff565b6040516020818303038152906040525b915050919050565b6000600560008473ffffffffffffffffffffffffffffffffffffffff1673ffffffffffffffffffffffffffffffffffffffff16815260200190815260200160002060008373ffffffffffffffffffffffffffffffffffffffff1673ffffffffffffffffffffffffffffffffffffffff16815260200190815260200160002060009054906101000a900460ff16905092915050565b60007f01ffc9a7000000000000000000000000000000000000000000000000000000007bffffffffffffffffffffffffffffffffffffffffffffffffffffffff1916827bffffffffffffffffffffffffffffffffffffffffffffffffffffffff1916149050919050565b610b838161153f565b610bc2576040517f08c379a0000000000000000000000000000000000000000000000000000000008152600401610bb990612111565b60405180910390fd5b50565b600033905090565b816004600083815260200190815260200160002060006101000a81548173ffffffffffffffffffffffffffffffffffffffff021916908373ffffffffffffffffffffffffffffffffffffffff160217905550808273ffffffffffffffffffffffffffffffffffffffff16610c4083610777565b73ffffffffffffffffffffffffffffffffffffffff167f8c5be1e5ebec7d5bd14f71427d1e84f3dd0314c0f7b2291e5b200ac8c7c3b92560405160405180910390a45050565b600081600001549050919050565b600073ffffffffffffffffffffffffffffffffffffffff168273ffffffffffffffffffffffffffffffffffffffff1603610d03576040517f08c379a0000000000000000000000000000000000000000000000000000000008152600401610cfa9061226f565b60405180910390fd5b610d0c8161153f565b15610d4c576040517f08c379a0000000000000000000000000000000000000000000000000000000008152600401610d43906122db565b60405180910390fd5b610d5a600083836001611580565b610d638161153f565b15610da3576040517f08c379a0000000000000000000000000000000000000000000000000000000008152600401610d9a906122db565b60405180910390fd5b6001600360008473ffffffffffffffffffffffffffffffffffffffff1673ffffffffffffffffffffffffffffffffffffffff16815260200190815260200160002060008282540192505081905550816002600083815260200190815260200160002060006101000a81548173ffffffffffffffffffffffffffffffffffffffff021916908373ffffffffffffffffffffffffffffffffffffffff160217905550808273ffffffffffffffffffffffffffffffffffffffff16600073ffffffffffffffffffffffffffffffffffffffff167fddf252ad1be2c89b69c2b068fc378daa952ba7f163c4a11628f55a4df523b3ef60405160405180910390a4610ead600083836001611586565b5050565b6001816000016000828254019250508190555050565b600080610ed383610777565b90508073ffffffffffffffffffffffffffffffffffffffff168473ffffffffffffffffffffffffffffffffffffffff161480610f155750610f148185610a7c565b5b80610f5357508373ffffffffffffffffffffffffffffffffffffffff16610f3b84610490565b73ffffffffffffffffffffffffffffffffffffffff16145b91505092915050565b8273ffffffffffffffffffffffffffffffffffffffff16610f7c82610777565b73ffffffffffffffffffffffffffffffffffffffff1614610fd2576040517f08c379a0000000000000000000000000000000000000000000000000000000008152600401610fc99061236d565b60405180910390fd5b600073ffffffffffffffffffffffffffffffffffffffff168273ffffffffffffffffffffffffffffffffffffffff1603611041576040517f08c379a0000000000000000000000000000000000000000000000000000000008152600401611038906123ff565b60405180910390fd5b61104e8383836001611580565b8273ffffffffffffffffffffffffffffffffffffffff1661106e82610777565b73ffffffffffffffffffffffffffffffffffffffff16146110c4576040517f08c379a00000000000000000000000000000000000000000000000000000000081526004016110bb9061236d565b60405180910390fd5b6004600082815260200190815260200160002060006101000a81549073ffffffffffffffffffffffffffffffffffffffff02191690556001600360008573ffffffffffffffffffffffffffffffffffffffff1673ffffffffffffffffffffffffffffffffffffffff168152602001908152602001600020600082825403925050819055506001600360008473ffffffffffffffffffffffffffffffffffffffff1673ffffffffffffffffffffffffffffffffffffffff16815260200190815260200160002060008282540192505081905550816002600083815260200190815260200160002060006101000a81548173ffffffffffffffffffffffffffffffffffffffff021916908373ffffffffffffffffffffffffffffffffffffffff160217905550808273ffffffffffffffffffffffffffffffffffffffff168473ffffffffffffffffffffffffffffffffffffffff167fddf252ad1be2c89b69c2b068fc378daa952ba7f163c4a11628f55a4df523b3ef60405160405180910390a46112508383836001611586565b505050565b60006002600083815260200190815260200160002060009054906101000a900473ffffffffffffffffffffffffffffffffffffffff169050919050565b8173ffffffffffffffffffffffffffffffffffffffff168373ffffffffffffffffffffffffffffffffffffffff1603611300576040517f08c379a00000000000000000000000000000000000000000000000000000000081526004016112f79061246b565b60405180910390fd5b80600560008573ffffffffffffffffffffffffffffffffffffffff1673ffffffffffffffffffffffffffffffffffffffff16815260200190815260200160002060008473ffffffffffffffffffffffffffffffffffffffff1673ffffffffffffffffffffffffffffffffffffffff16815260200190815260200160002060006101000a81548160ff0219169083151502179055508173ffffffffffffffffffffffffffffffffffffffff168373ffffffffffffffffffffffffffffffffffffffff167f17307eab39ab6107e8899845ad3d59bd9653f200f220920489ca2b5937696c31836040516113f1919061193d565b60405180910390a3505050565b611409848484610f5c565b6114158484848461158c565b611454576040517f08c379a000000000000000000000000000000000000000000000000000000000815260040161144b906124fd565b60405180910390fd5b50505050565b606060405180602001604052806000815250905090565b60606000600161148084611713565b01905060008167ffffffffffffffff81111561149f5761149e611c55565b5b6040519080825280601f01601f1916602001820160405280156114d15781602001600182028036833780820191505090505b509050600082602001820190505b600115611534578080600190039150507f3031323334353637383961626364656600000000000000000000000000000000600a86061a8153600a85816115285761152761251d565b5b049450600085036114df575b819350505050919050565b60008073ffffffffffffffffffffffffffffffffffffffff1661156183611255565b73ffffffffffffffffffffffffffffffffffffffff1614159050919050565b50505050565b50505050565b60006115ad8473ffffffffffffffffffffffffffffffffffffffff16611866565b15611706578373ffffffffffffffffffffffffffffffffffffffff1663150b7a026115d6610bc5565b8786866040518563ffffffff1660e01b81526004016115f894939291906125a1565b6020604051808303816000875af192505050801561163457506040513d601f19601f820116820180604052508101906116319190612602565b60015b6116b6573d8060008114611664576040519150601f19603f3d011682016040523d82523d6000602084013e611669565b606091505b5060008151036116ae576040517f08c379a00000000000000000000000000000000000000000000000000000000081526004016116a5906124fd565b60405180910390fd5b805181602001fd5b63150b7a0260e01b7bffffffffffffffffffffffffffffffffffffffffffffffffffffffff1916817bffffffffffffffffffffffffffffffffffffffffffffffffffffffff19161491505061170b565b600190505b949350505050565b600080600090507a184f03e93ff9f4daa797ed6e38ed64bf6a1f0100000000000000008310611771577a184f03e93ff9f4daa797ed6e38ed64bf6a1f01000000000000000083816117675761176661251d565b5b0492506040810190505b6d04ee2d6d415b85acef810000000083106117ae576d04ee2d6d415b85acef810000000083816117a4576117a361251d565b5b0492506020810190505b662386f26fc1000083106117dd57662386f26fc1000083816117d3576117d261251d565b5b0492506010810190505b6305f5e1008310611806576305f5e10083816117fc576117fb61251d565b5b0492506008810190505b612710831061182b5761271083816118215761182061251d565b5b0492506004810190505b6064831061184e57606483816118445761184361251d565b5b0492506002810190505b600a831061185d576001810190505b80915050919050565b6000808273ffffffffffffffffffffffffffffffffffffffff163b119050919050565b6000604051905090565b600080fd5b600080fd5b60007fffffffff0000000000000000000000000000000000000000000000000000000082169050919050565b6118d28161189d565b81146118dd57600080fd5b50565b6000813590506118ef816118c9565b92915050565b60006020828403121561190b5761190a611893565b5b6000611919848285016118e0565b91505092915050565b60008115159050919050565b61193781611922565b82525050565b6000602082019050611952600083018461192e565b92915050565b600081519050919050565b600082825260208201905092915050565b60005b83811015611992578082015181840152602081019050611977565b60008484015250505050565b6000601f19601f8301169050919050565b60006119ba82611958565b6119c48185611963565b93506119d4818560208601611974565b6119dd8161199e565b840191505092915050565b60006020820190508181036000830152611a0281846119af565b905092915050565b6000819050919050565b611a1d81611a0a565b8114611a2857600080fd5b50565b600081359050611a3a81611a14565b92915050565b600060208284031215611a5657611a55611893565b5b6000611a6484828501611a2b565b91505092915050565b600073ffffffffffffffffffffffffffffffffffffffff82169050919050565b6000611a9882611a6d565b9050919050565b611aa881611a8d565b82525050565b6000602082019050611ac36000830184611a9f565b92915050565b611ad281611a8d565b8114611add57600080fd5b50565b600081359050611aef81611ac9565b92915050565b60008060408385031215611b0c57611b0b611893565b5b6000611b1a85828601611ae0565b9250506020611b2b85828601611a2b565b9150509250929050565b600080600060608486031215611b4e57611b4d611893565b5b6000611b5c86828701611ae0565b9350506020611b6d86828701611ae0565b9250506040611b7e86828701611a2b565b9150509250925092565b600060208284031215611b9e57611b9d611893565b5b6000611bac84828501611ae0565b91505092915050565b611bbe81611a0a565b82525050565b6000602082019050611bd96000830184611bb5565b92915050565b611be881611922565b8114611bf357600080fd5b50565b600081359050611c0581611bdf565b92915050565b60008060408385031215611c2257611c21611893565b5b6000611c3085828601611ae0565b9250506020611c4185828601611bf6565b9150509250929050565b600080fd5b600080fd5b7f4e487b7100000000000000000000000000000000000000000000000000000000600052604160045260246000fd5b611c8d8261199e565b810181811067ffffffffffffffff82111715611cac57611cab611c55565b5b80604052505050565b6000611cbf611889565b9050611ccb8282611c84565b919050565b600067ffffffffffffffff821115611ceb57611cea611c55565b5b611cf48261199e565b9050602081019050919050565b82818337600083830152505050565b6000611d23611d1e84611cd0565b611cb5565b905082815260208101848484011115611d3f57611d3e611c50565b5b611d4a848285611d01565b509392505050565b600082601f830112611d6757611d66611c4b565b5b8135611d77848260208601611d10565b91505092915050565b60008060008060808587031215611d9a57611d99611893565b5b6000611da887828801611ae0565b9450506020611db987828801611ae0565b9350506040611dca87828801611a2b565b925050606085013567ffffffffffffffff811115611deb57611dea611898565b5b611df787828801611d52565b91505092959194509250565b60008060408385031215611e1a57611e19611893565b5b6000611e2885828601611ae0565b9250506020611e3985828601611ae0565b9150509250929050565b7f4e487b7100000000000000000000000000000000000000000000000000000000600052602260045260246000fd5b60006002820490506001821680611e8a57607f821691505b602082108103611e9d57611e9c611e43565b5b50919050565b7f4552433732313a20617070726f76616c20746f2063757272656e74206f776e6560008201527f7200000000000000000000000000000000000000000000000000000000000000602082015250565b6000611eff602183611963565b9150611f0a82611ea3565b604082019050919050565b60006020820190508181036000830152611f2e81611ef2565b9050919050565b7f4552433732313a20617070726f76652063616c6c6572206973206e6f7420746f60008201527f6b656e206f776e6572206f7220617070726f76656420666f7220616c6c000000602082015250565b6000611f91603d83611963565b9150611f9c82611f35565b604082019050919050565b60006020820190508181036000830152611fc081611f84565b9050919050565b7f57616c6c657420616c7265616479206f776e7320616e204e4654000000000000600082015250565b6000611ffd601a83611963565b915061200882611fc7565b602082019050919050565b6000602082019050818103600083015261202c81611ff0565b9050919050565b7f4552433732313a2063616c6c6572206973206e6f7420746f6b656e206f776e6560008201527f72206f7220617070726f76656400000000000000000000000000000000000000602082015250565b600061208f602d83611963565b915061209a82612033565b604082019050919050565b600060208201905081810360008301526120be81612082565b9050919050565b7f4552433732313a20696e76616c696420746f6b656e2049440000000000000000600082015250565b60006120fb601883611963565b9150612106826120c5565b602082019050919050565b6000602082019050818103600083015261212a816120ee565b9050919050565b7f4552433732313a2061646472657373207a65726f206973206e6f74206120766160008201527f6c6964206f776e65720000000000000000000000000000000000000000000000602082015250565b600061218d602983611963565b915061219882612131565b604082019050919050565b600060208201905081810360008301526121bc81612180565b9050919050565b600081905092915050565b60006121d982611958565b6121e381856121c3565b93506121f3818560208601611974565b80840191505092915050565b600061220b82856121ce565b915061221782846121ce565b91508190509392505050565b7f4552433732313a206d696e7420746f20746865207a65726f2061646472657373600082015250565b6000612259602083611963565b915061226482612223565b602082019050919050565b600060208201905081810360008301526122888161224c565b9050919050565b7f4552433732313a20746f6b656e20616c7265616479206d696e74656400000000600082015250565b60006122c5601c83611963565b91506122d08261228f565b602082019050919050565b600060208201905081810360008301526122f4816122b8565b9050919050565b7f4552433732313a207472616e736665722066726f6d20696e636f72726563742060008201527f6f776e6572000000000000000000000000000000000000000000000000000000602082015250565b6000612357602583611963565b9150612362826122fb565b604082019050919050565b600060208201905081810360008301526123868161234a565b9050919050565b7f4552433732313a207472616e7366657220746f20746865207a65726f2061646460008201527f7265737300000000000000000000000000000000000000000000000000000000602082015250565b60006123e9602483611963565b91506123f48261238d565b604082019050919050565b60006020820190508181036000830152612418816123dc565b9050919050565b7f4552433732313a20617070726f766520746f2063616c6c657200000000000000600082015250565b6000612455601983611963565b91506124608261241f565b602082019050919050565b6000602082019050818103600083015261248481612448565b9050919050565b7f4552433732313a207472616e7366657220746f206e6f6e20455243373231526560008201527f63656976657220696d706c656d656e7465720000000000000000000000000000602082015250565b60006124e7603283611963565b91506124f28261248b565b604082019050919050565b60006020820190508181036000830152612516816124da565b9050919050565b7f4e487b7100000000000000000000000000000000000000000000000000000000600052601260045260246000fd5b600081519050919050565b600082825260208201905092915050565b60006125738261254c565b61257d8185612557565b935061258d818560208601611974565b6125968161199e565b840191505092915050565b60006080820190506125b66000830187611a9f565b6125c36020830186611a9f565b6125d06040830185611bb5565b81810360608301526125e28184612568565b905095945050505050565b6000815190506125fc816118c9565b92915050565b60006020828403121561261857612617611893565b5b6000612626848285016125ed565b9150509291505056fea2646970667358221220abdf363319033999a4ca246ccd658f0859f084b5bb2352fd38ca8e897f38aed964736f6c63430008140033",
  "linkReferences": {},
  "deployedLinkReferences": {}
}